{
  "contractName": "MangoDex",
  "abi": [
    {
      "inputs": [
        {
          "internalType": "address",
          "name": "_token",
          "type": "address"
        }
      ],
      "stateMutability": "nonpayable",
      "type": "constructor"
    },
    {
      "anonymous": false,
      "inputs": [
        {
          "indexed": false,
          "internalType": "uint256",
          "name": "_amount",
          "type": "uint256"
        }
      ],
      "name": "Bought",
      "type": "event"
    },
    {
      "anonymous": false,
      "inputs": [
        {
          "indexed": false,
          "internalType": "uint256",
          "name": "_amount",
          "type": "uint256"
        }
      ],
      "name": "Sold",
      "type": "event"
    },
    {
      "inputs": [],
      "name": "mango",
      "outputs": [
        {
          "internalType": "contract IERC20",
          "name": "",
          "type": "address"
        }
      ],
      "stateMutability": "view",
      "type": "function",
      "constant": true
    },
    {
      "inputs": [],
      "name": "getMangoSupply",
      "outputs": [
        {
          "internalType": "uint256",
          "name": "",
          "type": "uint256"
        }
      ],
      "stateMutability": "view",
      "type": "function",
      "constant": true
    },
    {
      "inputs": [],
      "name": "getETHBalance",
      "outputs": [
        {
          "internalType": "uint256",
          "name": "",
          "type": "uint256"
        }
      ],
      "stateMutability": "view",
      "type": "function",
      "constant": true
    },
    {
      "inputs": [
        {
          "internalType": "uint256",
          "name": "_amount",
          "type": "uint256"
        }
      ],
      "name": "fundMangoSugar",
      "outputs": [],
      "stateMutability": "nonpayable",
      "type": "function"
    },
    {
      "inputs": [],
      "name": "buyMango",
      "outputs": [],
      "stateMutability": "payable",
      "type": "function",
      "payable": true
    },
    {
      "inputs": [
        {
          "internalType": "uint256",
          "name": "_amount",
          "type": "uint256"
        }
      ],
      "name": "sellMango",
      "outputs": [],
      "stateMutability": "nonpayable",
      "type": "function"
    }
  ],
  "bytecode": "0x608060405234801561001057600080fd5b50604051610c71380380610c71833981810160405281019061003291906100db565b806000806101000a81548173ffffffffffffffffffffffffffffffffffffffff021916908373ffffffffffffffffffffffffffffffffffffffff16021790555050610108565b600080fd5b600073ffffffffffffffffffffffffffffffffffffffff82169050919050565b60006100a88261007d565b9050919050565b6100b88161009d565b81146100c357600080fd5b50565b6000815190506100d5816100af565b92915050565b6000602082840312156100f1576100f0610078565b5b60006100ff848285016100c6565b91505092915050565b610b5a806101176000396000f3fe6080604052600436106100555760003560e01c80632ddec4701461005a57806352ae6ce6146100645780636e9472981461008d5780639201ce9e146100b8578063ac3f1024146100e3578063e7c7477a1461010c575b600080fd5b610062610137565b005b34801561007057600080fd5b5061008b600480360381019061008691906106b2565b610366565b005b34801561009957600080fd5b506100a2610419565b6040516100af91906106ee565b60405180910390f35b3480156100c457600080fd5b506100cd610421565b6040516100da91906106ee565b60405180910390f35b3480156100ef57600080fd5b5061010a600480360381019061010591906106b2565b6104d2565b005b34801561011857600080fd5b50610121610653565b60405161012e9190610788565b60405180910390f35b60006103e83461014791906107d2565b905060008060009054906101000a900473ffffffffffffffffffffffffffffffffffffffff1673ffffffffffffffffffffffffffffffffffffffff166370a08231306040518263ffffffff1660e01b81526004016101a5919061084d565b60206040518083038186803b1580156101bd57600080fd5b505afa1580156101d1573d6000803e3d6000fd5b505050506040513d601f19601f820116820180604052508101906101f5919061087d565b90506000821161023a576040517f08c379a000000000000000000000000000000000000000000000000000000000815260040161023190610907565b60405180910390fd5b8181101561027d576040517f08c379a000000000000000000000000000000000000000000000000000000000815260040161027490610973565b60405180910390fd5b60008054906101000a900473ffffffffffffffffffffffffffffffffffffffff1673ffffffffffffffffffffffffffffffffffffffff1663a9059cbb33846040518363ffffffff1660e01b81526004016102d8929190610993565b602060405180830381600087803b1580156102f257600080fd5b505af1158015610306573d6000803e3d6000fd5b505050506040513d601f19601f8201168201806040525081019061032a91906109f4565b507f4e08ba899977cf7d4c2964bce71c6b9a7ef76ee5166a4c1249a1e08016e33ef18260405161035a91906106ee565b60405180910390a15050565b60008054906101000a900473ffffffffffffffffffffffffffffffffffffffff1673ffffffffffffffffffffffffffffffffffffffff166323b872dd3330846040518463ffffffff1660e01b81526004016103c393929190610a21565b602060405180830381600087803b1580156103dd57600080fd5b505af11580156103f1573d6000803e3d6000fd5b505050506040513d601f19601f8201168201806040525081019061041591906109f4565b5050565b600047905090565b60008060009054906101000a900473ffffffffffffffffffffffffffffffffffffffff1673ffffffffffffffffffffffffffffffffffffffff166370a08231306040518263ffffffff1660e01b815260040161047d919061084d565b60206040518083038186803b15801561049557600080fd5b505afa1580156104a9573d6000803e3d6000fd5b505050506040513d601f19601f820116820180604052508101906104cd919061087d565b905090565b60008111610515576040517f08c379a000000000000000000000000000000000000000000000000000000000815260040161050c90610aa4565b60405180910390fd5b60008054906101000a900473ffffffffffffffffffffffffffffffffffffffff1673ffffffffffffffffffffffffffffffffffffffff166323b872dd3330846040518463ffffffff1660e01b815260040161057293929190610a21565b602060405180830381600087803b15801561058c57600080fd5b505af11580156105a0573d6000803e3d6000fd5b505050506040513d601f19601f820116820180604052508101906105c491906109f4565b503373ffffffffffffffffffffffffffffffffffffffff166108fc6103e8836105ed9190610af3565b9081150290604051600060405180830381858888f19350505050158015610618573d6000803e3d6000fd5b507f92f64ca637d023f354075a4be751b169c1a8a9ccb6d33cdd0cb35205439957278160405161064891906106ee565b60405180910390a150565b60008054906101000a900473ffffffffffffffffffffffffffffffffffffffff1681565b600080fd5b6000819050919050565b61068f8161067c565b811461069a57600080fd5b50565b6000813590506106ac81610686565b92915050565b6000602082840312156106c8576106c7610677565b5b60006106d68482850161069d565b91505092915050565b6106e88161067c565b82525050565b600060208201905061070360008301846106df565b92915050565b600073ffffffffffffffffffffffffffffffffffffffff82169050919050565b6000819050919050565b600061074e61074961074484610709565b610729565b610709565b9050919050565b600061076082610733565b9050919050565b600061077282610755565b9050919050565b61078281610767565b82525050565b600060208201905061079d6000830184610779565b92915050565b7f4e487b7100000000000000000000000000000000000000000000000000000000600052601160045260246000fd5b60006107dd8261067c565b91506107e88361067c565b9250817fffffffffffffffffffffffffffffffffffffffffffffffffffffffffffffffff0483118215151615610821576108206107a3565b5b828202905092915050565b600061083782610709565b9050919050565b6108478161082c565b82525050565b6000602082019050610862600083018461083e565b92915050565b60008151905061087781610686565b92915050565b60006020828403121561089357610892610677565b5b60006108a184828501610868565b91505092915050565b600082825260208201905092915050565b7f427579206d6f72652e0000000000000000000000000000000000000000000000600082015250565b60006108f16009836108aa565b91506108fc826108bb565b602082019050919050565b60006020820190508181036000830152610920816108e4565b9050919050565b7f5468652065786368616e6765206973206f7574206f66204d616e676f2e000000600082015250565b600061095d601d836108aa565b915061096882610927565b602082019050919050565b6000602082019050818103600083015261098c81610950565b9050919050565b60006040820190506109a8600083018561083e565b6109b560208301846106df565b9392505050565b60008115159050919050565b6109d1816109bc565b81146109dc57600080fd5b50565b6000815190506109ee816109c8565b92915050565b600060208284031215610a0a57610a09610677565b5b6000610a18848285016109df565b91505092915050565b6000606082019050610a36600083018661083e565b610a43602083018561083e565b610a5060408301846106df565b949350505050565b7f53656c6c20736f6d657468696e672e0000000000000000000000000000000000600082015250565b6000610a8e600f836108aa565b9150610a9982610a58565b602082019050919050565b60006020820190508181036000830152610abd81610a81565b9050919050565b7f4e487b7100000000000000000000000000000000000000000000000000000000600052601260045260246000fd5b6000610afe8261067c565b9150610b098361067c565b925082610b1957610b18610ac4565b5b82820490509291505056fea2646970667358221220d9d3803c4ba46a2cf65f063fe1dfc7a41b28f5d929837e9192c30fb8fef08a7664736f6c63430008080033",
  "immutableReferences": {},
  "source": "pragma solidity ^0.8.0;\n\nimport \"./Mango.sol\";\n\ncontract MangoDex {\n    \n    IERC20 public mango;\n    \n    \n    event Bought(uint _amount);\n    event Sold(uint _amount);\n    \n    constructor (address _token) {\n        mango = IERC20(_token);\n    }\n    \n    function getMangoSupply() public view returns(uint) {\n        return mango.balanceOf(address(this));\n    }\n    \n    function getETHBalance() public view returns(uint) {\n        return address(this).balance;\n    }\n    \n    //Send mango to the Dex from owner of ERC20 token.\n    function fundMangoSugar(uint _amount) public {\n        mango.transferFrom(msg.sender, address(this), _amount);\n    }\n    \n    function buyMango() payable public {\n        uint amountToBuy = msg.value * 1000; //For 1 eth, you get 1000 Mango.\n        uint dexBalance = mango.balanceOf(address(this));\n        require(amountToBuy > 0, \"Buy more.\");\n        require(dexBalance >= amountToBuy, \"The exchange is out of Mango.\");\n        mango.transfer(msg.sender, amountToBuy); \n        emit Bought(amountToBuy);\n    }\n    \n    function sellMango(uint _amount) public {\n        require(_amount > 0, \"Sell something.\");\n        mango.transferFrom(msg.sender, address(this), _amount);\n        payable(msg.sender).transfer(_amount / 1000); //For 1000 Mango, you get 1 eth.\n        emit Sold(_amount);\n    }\n    \n}",
  "sourcePath": "C:\\Users\\L_Mea\\contracts_solidity\\MangoDex\\contracts\\MangoDex.sol",
  "compiler": {
    "name": "solc",
    "version": "0.8.8+commit.dddeac2f.Emscripten.clang"
  },
  "schemaVersion": "3.4.3",
  "updatedAt": "2021-09-29T05:54:58.000Z",
  "networkType": "ethereum",
  "devdoc": {
    "kind": "dev",
    "methods": {},
    "version": 1
  },
  "userdoc": {
    "kind": "user",
    "methods": {},
    "version": 1
  }
}