{
  "contractName": "MangoJuice",
  "abi": [
    {
      "inputs": [
        {
          "internalType": "address",
          "name": "_token",
          "type": "address"
        }
      ],
      "stateMutability": "nonpayable",
      "type": "constructor"
    },
    {
      "anonymous": false,
      "inputs": [
        {
          "indexed": true,
          "internalType": "address",
          "name": "owner",
          "type": "address"
        },
        {
          "indexed": true,
          "internalType": "address",
          "name": "spender",
          "type": "address"
        },
        {
          "indexed": false,
          "internalType": "uint256",
          "name": "value",
          "type": "uint256"
        }
      ],
      "name": "Approval",
      "type": "event"
    },
    {
      "anonymous": false,
      "inputs": [
        {
          "indexed": false,
          "internalType": "uint256",
          "name": "_newRate",
          "type": "uint256"
        }
      ],
      "name": "RateChanged",
      "type": "event"
    },
    {
      "anonymous": false,
      "inputs": [
        {
          "indexed": false,
          "internalType": "address",
          "name": "_who",
          "type": "address"
        },
        {
          "indexed": false,
          "internalType": "uint256",
          "name": "_amount",
          "type": "uint256"
        },
        {
          "indexed": false,
          "internalType": "uint256",
          "name": "_totalMangoJuice",
          "type": "uint256"
        }
      ],
      "name": "RewardChanged",
      "type": "event"
    },
    {
      "anonymous": false,
      "inputs": [
        {
          "indexed": false,
          "internalType": "address",
          "name": "_who",
          "type": "address"
        },
        {
          "indexed": false,
          "internalType": "uint256",
          "name": "_amount",
          "type": "uint256"
        },
        {
          "indexed": false,
          "internalType": "uint256",
          "name": "_total",
          "type": "uint256"
        }
      ],
      "name": "StakeChanged",
      "type": "event"
    },
    {
      "anonymous": false,
      "inputs": [
        {
          "indexed": true,
          "internalType": "address",
          "name": "from",
          "type": "address"
        },
        {
          "indexed": true,
          "internalType": "address",
          "name": "to",
          "type": "address"
        },
        {
          "indexed": false,
          "internalType": "uint256",
          "name": "value",
          "type": "uint256"
        }
      ],
      "name": "Transfer",
      "type": "event"
    },
    {
      "inputs": [
        {
          "internalType": "address",
          "name": "owner",
          "type": "address"
        },
        {
          "internalType": "address",
          "name": "spender",
          "type": "address"
        }
      ],
      "name": "allowance",
      "outputs": [
        {
          "internalType": "uint256",
          "name": "",
          "type": "uint256"
        }
      ],
      "stateMutability": "view",
      "type": "function",
      "constant": true
    },
    {
      "inputs": [
        {
          "internalType": "address",
          "name": "spender",
          "type": "address"
        },
        {
          "internalType": "uint256",
          "name": "amount",
          "type": "uint256"
        }
      ],
      "name": "approve",
      "outputs": [
        {
          "internalType": "bool",
          "name": "",
          "type": "bool"
        }
      ],
      "stateMutability": "nonpayable",
      "type": "function"
    },
    {
      "inputs": [
        {
          "internalType": "address",
          "name": "account",
          "type": "address"
        }
      ],
      "name": "balanceOf",
      "outputs": [
        {
          "internalType": "uint256",
          "name": "",
          "type": "uint256"
        }
      ],
      "stateMutability": "view",
      "type": "function",
      "constant": true
    },
    {
      "inputs": [],
      "name": "decimals",
      "outputs": [
        {
          "internalType": "uint8",
          "name": "",
          "type": "uint8"
        }
      ],
      "stateMutability": "view",
      "type": "function",
      "constant": true
    },
    {
      "inputs": [
        {
          "internalType": "address",
          "name": "spender",
          "type": "address"
        },
        {
          "internalType": "uint256",
          "name": "subtractedValue",
          "type": "uint256"
        }
      ],
      "name": "decreaseAllowance",
      "outputs": [
        {
          "internalType": "bool",
          "name": "",
          "type": "bool"
        }
      ],
      "stateMutability": "nonpayable",
      "type": "function"
    },
    {
      "inputs": [],
      "name": "getOwner",
      "outputs": [
        {
          "internalType": "address",
          "name": "",
          "type": "address"
        }
      ],
      "stateMutability": "view",
      "type": "function",
      "constant": true
    },
    {
      "inputs": [
        {
          "internalType": "address",
          "name": "spender",
          "type": "address"
        },
        {
          "internalType": "uint256",
          "name": "addedValue",
          "type": "uint256"
        }
      ],
      "name": "increaseAllowance",
      "outputs": [
        {
          "internalType": "bool",
          "name": "",
          "type": "bool"
        }
      ],
      "stateMutability": "nonpayable",
      "type": "function"
    },
    {
      "inputs": [],
      "name": "interestRate",
      "outputs": [
        {
          "internalType": "uint256",
          "name": "",
          "type": "uint256"
        }
      ],
      "stateMutability": "view",
      "type": "function",
      "constant": true
    },
    {
      "inputs": [],
      "name": "mJus",
      "outputs": [
        {
          "internalType": "contract IERC20",
          "name": "",
          "type": "address"
        }
      ],
      "stateMutability": "view",
      "type": "function",
      "constant": true
    },
    {
      "inputs": [],
      "name": "mango",
      "outputs": [
        {
          "internalType": "contract IERC20",
          "name": "",
          "type": "address"
        }
      ],
      "stateMutability": "view",
      "type": "function",
      "constant": true
    },
    {
      "inputs": [],
      "name": "name",
      "outputs": [
        {
          "internalType": "string",
          "name": "",
          "type": "string"
        }
      ],
      "stateMutability": "view",
      "type": "function",
      "constant": true
    },
    {
      "inputs": [],
      "name": "owner",
      "outputs": [
        {
          "internalType": "address",
          "name": "",
          "type": "address"
        }
      ],
      "stateMutability": "view",
      "type": "function",
      "constant": true
    },
    {
      "inputs": [],
      "name": "rewardInterval",
      "outputs": [
        {
          "internalType": "uint256",
          "name": "",
          "type": "uint256"
        }
      ],
      "stateMutability": "view",
      "type": "function",
      "constant": true
    },
    {
      "inputs": [
        {
          "internalType": "address",
          "name": "",
          "type": "address"
        }
      ],
      "name": "stakers",
      "outputs": [
        {
          "internalType": "uint256",
          "name": "stake",
          "type": "uint256"
        },
        {
          "internalType": "uint256",
          "name": "reward",
          "type": "uint256"
        },
        {
          "internalType": "uint256",
          "name": "startTime",
          "type": "uint256"
        },
        {
          "internalType": "bool",
          "name": "isStaking",
          "type": "bool"
        }
      ],
      "stateMutability": "view",
      "type": "function",
      "constant": true
    },
    {
      "inputs": [],
      "name": "symbol",
      "outputs": [
        {
          "internalType": "string",
          "name": "",
          "type": "string"
        }
      ],
      "stateMutability": "view",
      "type": "function",
      "constant": true
    },
    {
      "inputs": [],
      "name": "totalSupply",
      "outputs": [
        {
          "internalType": "uint256",
          "name": "",
          "type": "uint256"
        }
      ],
      "stateMutability": "view",
      "type": "function",
      "constant": true
    },
    {
      "inputs": [
        {
          "internalType": "address",
          "name": "recipient",
          "type": "address"
        },
        {
          "internalType": "uint256",
          "name": "amount",
          "type": "uint256"
        }
      ],
      "name": "transfer",
      "outputs": [
        {
          "internalType": "bool",
          "name": "",
          "type": "bool"
        }
      ],
      "stateMutability": "nonpayable",
      "type": "function"
    },
    {
      "inputs": [
        {
          "internalType": "address",
          "name": "sender",
          "type": "address"
        },
        {
          "internalType": "address",
          "name": "recipient",
          "type": "address"
        },
        {
          "internalType": "uint256",
          "name": "amount",
          "type": "uint256"
        }
      ],
      "name": "transferFrom",
      "outputs": [
        {
          "internalType": "bool",
          "name": "",
          "type": "bool"
        }
      ],
      "stateMutability": "nonpayable",
      "type": "function"
    },
    {
      "inputs": [],
      "name": "balance",
      "outputs": [
        {
          "internalType": "uint256",
          "name": "",
          "type": "uint256"
        }
      ],
      "stateMutability": "view",
      "type": "function",
      "constant": true
    },
    {
      "inputs": [],
      "name": "juiceBalance",
      "outputs": [
        {
          "internalType": "uint256",
          "name": "",
          "type": "uint256"
        }
      ],
      "stateMutability": "view",
      "type": "function",
      "constant": true
    },
    {
      "inputs": [],
      "name": "getInterestRate",
      "outputs": [
        {
          "internalType": "uint256",
          "name": "",
          "type": "uint256"
        }
      ],
      "stateMutability": "view",
      "type": "function",
      "constant": true
    },
    {
      "inputs": [],
      "name": "getInterestInterval",
      "outputs": [
        {
          "internalType": "uint256",
          "name": "",
          "type": "uint256"
        }
      ],
      "stateMutability": "view",
      "type": "function",
      "constant": true
    },
    {
      "inputs": [],
      "name": "getStake",
      "outputs": [
        {
          "internalType": "uint256",
          "name": "",
          "type": "uint256"
        }
      ],
      "stateMutability": "view",
      "type": "function",
      "constant": true
    },
    {
      "inputs": [
        {
          "internalType": "uint256",
          "name": "_newInterval",
          "type": "uint256"
        }
      ],
      "name": "setRewardInterval",
      "outputs": [],
      "stateMutability": "nonpayable",
      "type": "function"
    },
    {
      "inputs": [
        {
          "internalType": "uint256",
          "name": "_newRate",
          "type": "uint256"
        }
      ],
      "name": "setInterestRate",
      "outputs": [],
      "stateMutability": "nonpayable",
      "type": "function"
    },
    {
      "inputs": [
        {
          "internalType": "uint256",
          "name": "_amount",
          "type": "uint256"
        }
      ],
      "name": "deposit",
      "outputs": [],
      "stateMutability": "nonpayable",
      "type": "function"
    },
    {
      "inputs": [
        {
          "internalType": "uint256",
          "name": "_amount",
          "type": "uint256"
        }
      ],
      "name": "withdraw",
      "outputs": [],
      "stateMutability": "nonpayable",
      "type": "function"
    },
    {
      "inputs": [
        {
          "internalType": "address",
          "name": "_staker",
          "type": "address"
        }
      ],
      "name": "viewReward",
      "outputs": [
        {
          "internalType": "uint256",
          "name": "",
          "type": "uint256"
        }
      ],
      "stateMutability": "view",
      "type": "function",
      "constant": true
    },
    {
      "inputs": [
        {
          "internalType": "address",
          "name": "_staker",
          "type": "address"
        }
      ],
      "name": "calculateReward",
      "outputs": [],
      "stateMutability": "nonpayable",
      "type": "function"
    },
    {
      "inputs": [],
      "name": "collectReward",
      "outputs": [],
      "stateMutability": "nonpayable",
      "type": "function"
    },
    {
      "inputs": [],
      "name": "emergencyWithdraw",
      "outputs": [],
      "stateMutability": "nonpayable",
      "type": "function"
    }
  ],
  "bytecode": "0x6080604052603c60085560326009553480156200001b57600080fd5b506040516200386338038062003863833981810160405281019062000041919062000272565b6040518060400160405280600a81526020017f4d616e676f4a75696365000000000000000000000000000000000000000000008152506040518060400160405280600481526020017f4d4a5553000000000000000000000000000000000000000000000000000000008152508160039080519060200190620000c5929190620001ab565b508060049080519060200190620000de929190620001ab565b50505033600560006101000a81548173ffffffffffffffffffffffffffffffffffffffff021916908373ffffffffffffffffffffffffffffffffffffffff16021790555080600660006101000a81548173ffffffffffffffffffffffffffffffffffffffff021916908373ffffffffffffffffffffffffffffffffffffffff16021790555030600760006101000a81548173ffffffffffffffffffffffffffffffffffffffff021916908373ffffffffffffffffffffffffffffffffffffffff160217905550506200035c565b828054620001b990620002d8565b90600052602060002090601f016020900481019282620001dd576000855562000229565b82601f10620001f857805160ff191683800117855562000229565b8280016001018555821562000229579182015b82811115620002285782518255916020019190600101906200020b565b5b5090506200023891906200023c565b5090565b5b80821115620002575760008160009055506001016200023d565b5090565b6000815190506200026c8162000342565b92915050565b6000602082840312156200028b576200028a6200033d565b5b60006200029b848285016200025b565b91505092915050565b6000620002b182620002b8565b9050919050565b600073ffffffffffffffffffffffffffffffffffffffff82169050919050565b60006002820490506001821680620002f157607f821691505b602082108114156200030857620003076200030e565b5b50919050565b7f4e487b7100000000000000000000000000000000000000000000000000000000600052602260045260246000fd5b600080fd5b6200034d81620002a4565b81146200035957600080fd5b50565b6134f7806200036c6000396000f3fe608060405234801561001057600080fd5b50600436106101e55760003560e01c80639168ae721161010f578063bec4de3f116100a2578063dd62ed3e11610071578063dd62ed3e14610577578063e3e84213146105a7578063e7c7477a146105c3578063fc0e3d90146105e1576101e5565b8063bec4de3f14610503578063d0eede6714610521578063d82e396214610551578063db2e21bc1461056d576101e5565b8063a9059cbb116100de578063a9059cbb1461047b578063b69ef8a8146104ab578063b6b55f25146104c9578063b9c42290146104e5576101e5565b80639168ae72146103dc57806395d89b411461040f5780639a9819bf1461042d578063a457c2d71461044b576101e5565b8063395093511161018757806370a082311161015657806370a08231146103525780637c3a00fd14610382578063893d20e8146103a05780638da5cb5b146103be576101e5565b806339509351146102de5780635257b5661461030e57806354c5aee11461032c5780635f84f30214610336576101e5565b806318160ddd116101c357806318160ddd1461025657806323b872dd146102745780632e1a7d4d146102a4578063313ce567146102c0576101e5565b806306fdde03146101ea578063095849d814610208578063095ea7b314610226575b600080fd5b6101f26105ff565b6040516101ff9190612a8a565b60405180910390f35b610210610691565b60405161021d9190612ccc565b60405180910390f35b610240600480360381019061023b91906125bc565b61069b565b60405161024d9190612a54565b60405180910390f35b61025e6106b9565b60405161026b9190612ccc565b60405180910390f35b61028e60048036038101906102899190612569565b6106c3565b60405161029b9190612a54565b60405180910390f35b6102be60048036038101906102b99190612629565b6107bb565b005b6102c8610991565b6040516102d59190612d2c565b60405180910390f35b6102f860048036038101906102f391906125bc565b61099a565b6040516103059190612a54565b60405180910390f35b610316610a46565b6040516103239190612ccc565b60405180910390f35b610334610a50565b005b610350600480360381019061034b9190612629565b610cb7565b005b61036c600480360381019061036791906124fc565b610d88565b6040516103799190612ccc565b60405180910390f35b61038a610dd0565b6040516103979190612ccc565b60405180910390f35b6103a8610dd6565b6040516103b591906129a2565b60405180910390f35b6103c6610e00565b6040516103d391906129a2565b60405180910390f35b6103f660048036038101906103f191906124fc565b610e26565b6040516104069493929190612ce7565b60405180910390f35b610417610e63565b6040516104249190612a8a565b60405180910390f35b610435610ef5565b6040516104429190612ccc565b60405180910390f35b610465600480360381019061046091906125bc565b610fa7565b6040516104729190612a54565b60405180910390f35b610495600480360381019061049091906125bc565b611092565b6040516104a29190612a54565b60405180910390f35b6104b36110b0565b6040516104c09190612ccc565b60405180910390f35b6104e360048036038101906104de9190612629565b611162565b005b6104ed6113de565b6040516104fa9190612a6f565b60405180910390f35b61050b611404565b6040516105189190612ccc565b60405180910390f35b61053b600480360381019061053691906124fc565b61140a565b6040516105489190612ccc565b60405180910390f35b61056b600480360381019061056691906124fc565b611456565b005b6105756115f0565b005b610591600480360381019061058c9190612529565b611806565b60405161059e9190612ccc565b60405180910390f35b6105c160048036038101906105bc9190612629565b61188d565b005b6105cb611927565b6040516105d89190612a6f565b60405180910390f35b6105e961194d565b6040516105f69190612ccc565b60405180910390f35b60606003805461060e90612f4c565b80601f016020809104026020016040519081016040528092919081815260200182805461063a90612f4c565b80156106875780601f1061065c57610100808354040283529160200191610687565b820191906000526020600020905b81548152906001019060200180831161066a57829003601f168201915b5050505050905090565b6000600854905090565b60006106af6106a8611997565b848461199f565b6001905092915050565b6000600254905090565b60006106d0848484611b6a565b6000600160008673ffffffffffffffffffffffffffffffffffffffff1673ffffffffffffffffffffffffffffffffffffffff168152602001908152602001600020600061071b611997565b73ffffffffffffffffffffffffffffffffffffffff1673ffffffffffffffffffffffffffffffffffffffff1681526020019081526020016000205490508281101561079b576040517f08c379a000000000000000000000000000000000000000000000000000000000815260040161079290612b8c565b60405180910390fd5b6107af856107a7611997565b85840361199f565b60019150509392505050565b6107c53382611deb565b6108123382600660009054906101000a900473ffffffffffffffffffffffffffffffffffffffff1673ffffffffffffffffffffffffffffffffffffffff16611fc29092919063ffffffff16565b80600a60003373ffffffffffffffffffffffffffffffffffffffff1673ffffffffffffffffffffffffffffffffffffffff16815260200190815260200160002060000160008282546108649190612e5a565b92505081905550600a60003373ffffffffffffffffffffffffffffffffffffffff1673ffffffffffffffffffffffffffffffffffffffff16815260200190815260200160002060000154811415610911576000600a60003373ffffffffffffffffffffffffffffffffffffffff1673ffffffffffffffffffffffffffffffffffffffff16815260200190815260200160002060030160006101000a81548160ff0219169083151502179055505b7fd473ba45d607aefbdd0f6f0d283e9452b2fff27c93dda618526d18ffd9a170c73382600a60003373ffffffffffffffffffffffffffffffffffffffff1673ffffffffffffffffffffffffffffffffffffffff1681526020019081526020016000206000015460405161098693929190612a1d565b60405180910390a150565b60006012905090565b6000610a3c6109a7611997565b8484600160006109b5611997565b73ffffffffffffffffffffffffffffffffffffffff1673ffffffffffffffffffffffffffffffffffffffff16815260200190815260200160002060008873ffffffffffffffffffffffffffffffffffffffff1673ffffffffffffffffffffffffffffffffffffffff16815260200190815260200160002054610a379190612d79565b61199f565b6001905092915050565b6000600954905090565b610a5933611456565b6000600a60003373ffffffffffffffffffffffffffffffffffffffff1673ffffffffffffffffffffffffffffffffffffffff1681526020019081526020016000206001015411610ade576040517f08c379a0000000000000000000000000000000000000000000000000000000008152600401610ad590612b0c565b60405180910390fd5b6000600a60003373ffffffffffffffffffffffffffffffffffffffff1673ffffffffffffffffffffffffffffffffffffffff16815260200190815260200160002060010154905080600a60003373ffffffffffffffffffffffffffffffffffffffff1673ffffffffffffffffffffffffffffffffffffffff1681526020019081526020016000206001016000828254610b779190612e5a565b9250508190555042600a60003373ffffffffffffffffffffffffffffffffffffffff1673ffffffffffffffffffffffffffffffffffffffff16815260200190815260200160002060020181905550610bcf3382612048565b7f96e997fbb9668a29af391a5cd27f5a4d30484b18e7bb5fcaaf2f7075066eb6733382600760009054906101000a900473ffffffffffffffffffffffffffffffffffffffff1673ffffffffffffffffffffffffffffffffffffffff166370a08231336040518263ffffffff1660e01b8152600401610c4d91906129a2565b60206040518083038186803b158015610c6557600080fd5b505afa158015610c79573d6000803e3d6000fd5b505050506040513d601f19601f82011682018060405250810190610c9d9190612656565b604051610cac93929190612a1d565b60405180910390a150565b600560009054906101000a900473ffffffffffffffffffffffffffffffffffffffff1673ffffffffffffffffffffffffffffffffffffffff163373ffffffffffffffffffffffffffffffffffffffff1614610d47576040517f08c379a0000000000000000000000000000000000000000000000000000000008152600401610d3e90612b6c565b60405180910390fd5b806009819055507f595a30f13a69b616c4d568e2a2b7875fdfe86e4300a049953c76ee278f8f3f1081604051610d7d9190612ccc565b60405180910390a150565b60008060008373ffffffffffffffffffffffffffffffffffffffff1673ffffffffffffffffffffffffffffffffffffffff168152602001908152602001600020549050919050565b60095481565b6000600560009054906101000a900473ffffffffffffffffffffffffffffffffffffffff16905090565b600560009054906101000a900473ffffffffffffffffffffffffffffffffffffffff1681565b600a6020528060005260406000206000915090508060000154908060010154908060020154908060030160009054906101000a900460ff16905084565b606060048054610e7290612f4c565b80601f0160208091040260200160405190810160405280929190818152602001828054610e9e90612f4c565b8015610eeb5780601f10610ec057610100808354040283529160200191610eeb565b820191906000526020600020905b815481529060010190602001808311610ece57829003601f168201915b5050505050905090565b6000600760009054906101000a900473ffffffffffffffffffffffffffffffffffffffff1673ffffffffffffffffffffffffffffffffffffffff166370a08231336040518263ffffffff1660e01b8152600401610f5291906129a2565b60206040518083038186803b158015610f6a57600080fd5b505afa158015610f7e573d6000803e3d6000fd5b505050506040513d601f19601f82011682018060405250810190610fa29190612656565b905090565b60008060016000610fb6611997565b73ffffffffffffffffffffffffffffffffffffffff1673ffffffffffffffffffffffffffffffffffffffff16815260200190815260200160002060008573ffffffffffffffffffffffffffffffffffffffff1673ffffffffffffffffffffffffffffffffffffffff16815260200190815260200160002054905082811015611073576040517f08c379a000000000000000000000000000000000000000000000000000000000815260040161106a90612c8c565b60405180910390fd5b61108761107e611997565b8585840361199f565b600191505092915050565b60006110a661109f611997565b8484611b6a565b6001905092915050565b6000600660009054906101000a900473ffffffffffffffffffffffffffffffffffffffff1673ffffffffffffffffffffffffffffffffffffffff166370a08231306040518263ffffffff1660e01b815260040161110d91906129a2565b60206040518083038186803b15801561112557600080fd5b505afa158015611139573d6000803e3d6000fd5b505050506040513d601f19601f8201168201806040525081019061115d9190612656565b905090565b600081116111a5576040517f08c379a000000000000000000000000000000000000000000000000000000000815260040161119c90612c2c565b60405180910390fd5b60011515600a60003373ffffffffffffffffffffffffffffffffffffffff1673ffffffffffffffffffffffffffffffffffffffff16815260200190815260200160002060030160009054906101000a900460ff161515141561120a57611209610a50565b5b611259333083600660009054906101000a900473ffffffffffffffffffffffffffffffffffffffff1673ffffffffffffffffffffffffffffffffffffffff166121a8909392919063ffffffff16565b6112633382612048565b6001600a60003373ffffffffffffffffffffffffffffffffffffffff1673ffffffffffffffffffffffffffffffffffffffff16815260200190815260200160002060030160006101000a81548160ff02191690831515021790555080600a60003373ffffffffffffffffffffffffffffffffffffffff1673ffffffffffffffffffffffffffffffffffffffff16815260200190815260200160002060000160008282546113109190612d79565b9250508190555042600a60003373ffffffffffffffffffffffffffffffffffffffff1673ffffffffffffffffffffffffffffffffffffffff168152602001908152602001600020600201819055507fd473ba45d607aefbdd0f6f0d283e9452b2fff27c93dda618526d18ffd9a170c73382600a60003373ffffffffffffffffffffffffffffffffffffffff1673ffffffffffffffffffffffffffffffffffffffff168152602001908152602001600020600001546040516113d393929190612a1d565b60405180910390a150565b600760009054906101000a900473ffffffffffffffffffffffffffffffffffffffff1681565b60085481565b6000600a60008373ffffffffffffffffffffffffffffffffffffffff1673ffffffffffffffffffffffffffffffffffffffff168152602001908152602001600020600101549050919050565b60011515600a60008373ffffffffffffffffffffffffffffffffffffffff1673ffffffffffffffffffffffffffffffffffffffff16815260200190815260200160002060030160009054906101000a900460ff161515146114ec576040517f08c379a00000000000000000000000000000000000000000000000000000000081526004016114e390612c6c565b60405180910390fd5b6000600854600a60008473ffffffffffffffffffffffffffffffffffffffff1673ffffffffffffffffffffffffffffffffffffffff168152602001908152602001600020600201544261153f9190612e5a565b6115499190612dcf565b9050600954600a60008473ffffffffffffffffffffffffffffffffffffffff1673ffffffffffffffffffffffffffffffffffffffff168152602001908152602001600020600001548261159c9190612e00565b6115a69190612dcf565b600a60008473ffffffffffffffffffffffffffffffffffffffff1673ffffffffffffffffffffffffffffffffffffffff168152602001908152602001600020600101819055505050565b6000600a60003373ffffffffffffffffffffffffffffffffffffffff1673ffffffffffffffffffffffffffffffffffffffff1681526020019081526020016000206000015490506000600a60003373ffffffffffffffffffffffffffffffffffffffff1673ffffffffffffffffffffffffffffffffffffffff168152602001908152602001600020600101819055506000600a60003373ffffffffffffffffffffffffffffffffffffffff1673ffffffffffffffffffffffffffffffffffffffff168152602001908152602001600020600001819055506116d13382611deb565b61171e3382600660009054906101000a900473ffffffffffffffffffffffffffffffffffffffff1673ffffffffffffffffffffffffffffffffffffffff16611fc29092919063ffffffff16565b7f96e997fbb9668a29af391a5cd27f5a4d30484b18e7bb5fcaaf2f7075066eb6733382600760009054906101000a900473ffffffffffffffffffffffffffffffffffffffff1673ffffffffffffffffffffffffffffffffffffffff166370a08231336040518263ffffffff1660e01b815260040161179c91906129a2565b60206040518083038186803b1580156117b457600080fd5b505afa1580156117c8573d6000803e3d6000fd5b505050506040513d601f19601f820116820180604052508101906117ec9190612656565b6040516117fb93929190612a1d565b60405180910390a150565b6000600160008473ffffffffffffffffffffffffffffffffffffffff1673ffffffffffffffffffffffffffffffffffffffff16815260200190815260200160002060008373ffffffffffffffffffffffffffffffffffffffff1673ffffffffffffffffffffffffffffffffffffffff16815260200190815260200160002054905092915050565b600560009054906101000a900473ffffffffffffffffffffffffffffffffffffffff1673ffffffffffffffffffffffffffffffffffffffff163373ffffffffffffffffffffffffffffffffffffffff161461191d576040517f08c379a000000000000000000000000000000000000000000000000000000000815260040161191490612b6c565b60405180910390fd5b8060088190555050565b600660009054906101000a900473ffffffffffffffffffffffffffffffffffffffff1681565b6000600a60003373ffffffffffffffffffffffffffffffffffffffff1673ffffffffffffffffffffffffffffffffffffffff16815260200190815260200160002060000154905090565b600033905090565b600073ffffffffffffffffffffffffffffffffffffffff168373ffffffffffffffffffffffffffffffffffffffff161415611a0f576040517f08c379a0000000000000000000000000000000000000000000000000000000008152600401611a0690612bec565b60405180910390fd5b600073ffffffffffffffffffffffffffffffffffffffff168273ffffffffffffffffffffffffffffffffffffffff161415611a7f576040517f08c379a0000000000000000000000000000000000000000000000000000000008152600401611a7690612aec565b60405180910390fd5b80600160008573ffffffffffffffffffffffffffffffffffffffff1673ffffffffffffffffffffffffffffffffffffffff16815260200190815260200160002060008473ffffffffffffffffffffffffffffffffffffffff1673ffffffffffffffffffffffffffffffffffffffff168152602001908152602001600020819055508173ffffffffffffffffffffffffffffffffffffffff168373ffffffffffffffffffffffffffffffffffffffff167f8c5be1e5ebec7d5bd14f71427d1e84f3dd0314c0f7b2291e5b200ac8c7c3b92583604051611b5d9190612ccc565b60405180910390a3505050565b600073ffffffffffffffffffffffffffffffffffffffff168373ffffffffffffffffffffffffffffffffffffffff161415611bda576040517f08c379a0000000000000000000000000000000000000000000000000000000008152600401611bd190612bcc565b60405180910390fd5b600073ffffffffffffffffffffffffffffffffffffffff168273ffffffffffffffffffffffffffffffffffffffff161415611c4a576040517f08c379a0000000000000000000000000000000000000000000000000000000008152600401611c4190612aac565b60405180910390fd5b611c55838383612231565b60008060008573ffffffffffffffffffffffffffffffffffffffff1673ffffffffffffffffffffffffffffffffffffffff16815260200190815260200160002054905081811015611cdb576040517f08c379a0000000000000000000000000000000000000000000000000000000008152600401611cd290612b2c565b60405180910390fd5b8181036000808673ffffffffffffffffffffffffffffffffffffffff1673ffffffffffffffffffffffffffffffffffffffff16815260200190815260200160002081905550816000808573ffffffffffffffffffffffffffffffffffffffff1673ffffffffffffffffffffffffffffffffffffffff1681526020019081526020016000206000828254611d6e9190612d79565b925050819055508273ffffffffffffffffffffffffffffffffffffffff168473ffffffffffffffffffffffffffffffffffffffff167fddf252ad1be2c89b69c2b068fc378daa952ba7f163c4a11628f55a4df523b3ef84604051611dd29190612ccc565b60405180910390a3611de5848484612236565b50505050565b600073ffffffffffffffffffffffffffffffffffffffff168273ffffffffffffffffffffffffffffffffffffffff161415611e5b576040517f08c379a0000000000000000000000000000000000000000000000000000000008152600401611e5290612bac565b60405180910390fd5b611e6782600083612231565b60008060008473ffffffffffffffffffffffffffffffffffffffff1673ffffffffffffffffffffffffffffffffffffffff16815260200190815260200160002054905081811015611eed576040517f08c379a0000000000000000000000000000000000000000000000000000000008152600401611ee490612acc565b60405180910390fd5b8181036000808573ffffffffffffffffffffffffffffffffffffffff1673ffffffffffffffffffffffffffffffffffffffff168152602001908152602001600020819055508160026000828254611f449190612e5a565b92505081905550600073ffffffffffffffffffffffffffffffffffffffff168373ffffffffffffffffffffffffffffffffffffffff167fddf252ad1be2c89b69c2b068fc378daa952ba7f163c4a11628f55a4df523b3ef84604051611fa99190612ccc565b60405180910390a3611fbd83600084612236565b505050565b6120438363a9059cbb60e01b8484604051602401611fe19291906129f4565b604051602081830303815290604052907bffffffffffffffffffffffffffffffffffffffffffffffffffffffff19166020820180517bffffffffffffffffffffffffffffffffffffffffffffffffffffffff838183161783525050505061223b565b505050565b600073ffffffffffffffffffffffffffffffffffffffff168273ffffffffffffffffffffffffffffffffffffffff1614156120b8576040517f08c379a00000000000000000000000000000000000000000000000000000000081526004016120af90612cac565b60405180910390fd5b6120c460008383612231565b80600260008282546120d69190612d79565b92505081905550806000808473ffffffffffffffffffffffffffffffffffffffff1673ffffffffffffffffffffffffffffffffffffffff168152602001908152602001600020600082825461212b9190612d79565b925050819055508173ffffffffffffffffffffffffffffffffffffffff16600073ffffffffffffffffffffffffffffffffffffffff167fddf252ad1be2c89b69c2b068fc378daa952ba7f163c4a11628f55a4df523b3ef836040516121909190612ccc565b60405180910390a36121a460008383612236565b5050565b61222b846323b872dd60e01b8585856040516024016121c9939291906129bd565b604051602081830303815290604052907bffffffffffffffffffffffffffffffffffffffffffffffffffffffff19166020820180517bffffffffffffffffffffffffffffffffffffffffffffffffffffffff838183161783525050505061223b565b50505050565b505050565b505050565b600061229d826040518060400160405280602081526020017f5361666545524332303a206c6f772d6c6576656c2063616c6c206661696c65648152508573ffffffffffffffffffffffffffffffffffffffff166123029092919063ffffffff16565b90506000815111156122fd57808060200190518101906122bd91906125fc565b6122fc576040517f08c379a00000000000000000000000000000000000000000000000000000000081526004016122f390612c4c565b60405180910390fd5b5b505050565b6060612311848460008561231a565b90509392505050565b60608247101561235f576040517f08c379a000000000000000000000000000000000000000000000000000000000815260040161235690612b4c565b60405180910390fd5b6123688561242e565b6123a7576040517f08c379a000000000000000000000000000000000000000000000000000000000815260040161239e90612c0c565b60405180910390fd5b6000808673ffffffffffffffffffffffffffffffffffffffff1685876040516123d0919061298b565b60006040518083038185875af1925050503d806000811461240d576040519150601f19603f3d011682016040523d82523d6000602084013e612412565b606091505b5091509150612422828286612441565b92505050949350505050565b600080823b905060008111915050919050565b60608315612451578290506124a1565b6000835111156124645782518084602001fd5b816040517f08c379a00000000000000000000000000000000000000000000000000000000081526004016124989190612a8a565b60405180910390fd5b9392505050565b6000813590506124b78161347c565b92915050565b6000815190506124cc81613493565b92915050565b6000813590506124e1816134aa565b92915050565b6000815190506124f6816134aa565b92915050565b6000602082840312156125125761251161300b565b5b6000612520848285016124a8565b91505092915050565b600080604083850312156125405761253f61300b565b5b600061254e858286016124a8565b925050602061255f858286016124a8565b9150509250929050565b6000806000606084860312156125825761258161300b565b5b6000612590868287016124a8565b93505060206125a1868287016124a8565b92505060406125b2868287016124d2565b9150509250925092565b600080604083850312156125d3576125d261300b565b5b60006125e1858286016124a8565b92505060206125f2858286016124d2565b9150509250929050565b6000602082840312156126125761261161300b565b5b6000612620848285016124bd565b91505092915050565b60006020828403121561263f5761263e61300b565b5b600061264d848285016124d2565b91505092915050565b60006020828403121561266c5761266b61300b565b5b600061267a848285016124e7565b91505092915050565b61268c81612e8e565b82525050565b61269b81612ea0565b82525050565b60006126ac82612d47565b6126b68185612d5d565b93506126c6818560208601612f19565b80840191505092915050565b6126db81612ee3565b82525050565b60006126ec82612d52565b6126f68185612d68565b9350612706818560208601612f19565b61270f81613010565b840191505092915050565b6000612727602383612d68565b915061273282613021565b604082019050919050565b600061274a602283612d68565b915061275582613070565b604082019050919050565b600061276d602283612d68565b9150612778826130bf565b604082019050919050565b6000612790600f83612d68565b915061279b8261310e565b602082019050919050565b60006127b3602683612d68565b91506127be82613137565b604082019050919050565b60006127d6602683612d68565b91506127e182613186565b604082019050919050565b60006127f9601483612d68565b9150612804826131d5565b602082019050919050565b600061281c602883612d68565b9150612827826131fe565b604082019050919050565b600061283f602183612d68565b915061284a8261324d565b604082019050919050565b6000612862602583612d68565b915061286d8261329c565b604082019050919050565b6000612885602483612d68565b9150612890826132eb565b604082019050919050565b60006128a8601d83612d68565b91506128b38261333a565b602082019050919050565b60006128cb601283612d68565b91506128d682613363565b602082019050919050565b60006128ee602a83612d68565b91506128f98261338c565b604082019050919050565b6000612911601983612d68565b915061291c826133db565b602082019050919050565b6000612934602583612d68565b915061293f82613404565b604082019050919050565b6000612957601f83612d68565b915061296282613453565b602082019050919050565b61297681612ecc565b82525050565b61298581612ed6565b82525050565b600061299782846126a1565b915081905092915050565b60006020820190506129b76000830184612683565b92915050565b60006060820190506129d26000830186612683565b6129df6020830185612683565b6129ec604083018461296d565b949350505050565b6000604082019050612a096000830185612683565b612a16602083018461296d565b9392505050565b6000606082019050612a326000830186612683565b612a3f602083018561296d565b612a4c604083018461296d565b949350505050565b6000602082019050612a696000830184612692565b92915050565b6000602082019050612a8460008301846126d2565b92915050565b60006020820190508181036000830152612aa481846126e1565b905092915050565b60006020820190508181036000830152612ac58161271a565b9050919050565b60006020820190508181036000830152612ae58161273d565b9050919050565b60006020820190508181036000830152612b0581612760565b9050919050565b60006020820190508181036000830152612b2581612783565b9050919050565b60006020820190508181036000830152612b45816127a6565b9050919050565b60006020820190508181036000830152612b65816127c9565b9050919050565b60006020820190508181036000830152612b85816127ec565b9050919050565b60006020820190508181036000830152612ba58161280f565b9050919050565b60006020820190508181036000830152612bc581612832565b9050919050565b60006020820190508181036000830152612be581612855565b9050919050565b60006020820190508181036000830152612c0581612878565b9050919050565b60006020820190508181036000830152612c258161289b565b9050919050565b60006020820190508181036000830152612c45816128be565b9050919050565b60006020820190508181036000830152612c65816128e1565b9050919050565b60006020820190508181036000830152612c8581612904565b9050919050565b60006020820190508181036000830152612ca581612927565b9050919050565b60006020820190508181036000830152612cc58161294a565b9050919050565b6000602082019050612ce1600083018461296d565b92915050565b6000608082019050612cfc600083018761296d565b612d09602083018661296d565b612d16604083018561296d565b612d236060830184612692565b95945050505050565b6000602082019050612d41600083018461297c565b92915050565b600081519050919050565b600081519050919050565b600081905092915050565b600082825260208201905092915050565b6000612d8482612ecc565b9150612d8f83612ecc565b9250827fffffffffffffffffffffffffffffffffffffffffffffffffffffffffffffffff03821115612dc457612dc3612f7e565b5b828201905092915050565b6000612dda82612ecc565b9150612de583612ecc565b925082612df557612df4612fad565b5b828204905092915050565b6000612e0b82612ecc565b9150612e1683612ecc565b9250817fffffffffffffffffffffffffffffffffffffffffffffffffffffffffffffffff0483118215151615612e4f57612e4e612f7e565b5b828202905092915050565b6000612e6582612ecc565b9150612e7083612ecc565b925082821015612e8357612e82612f7e565b5b828203905092915050565b6000612e9982612eac565b9050919050565b60008115159050919050565b600073ffffffffffffffffffffffffffffffffffffffff82169050919050565b6000819050919050565b600060ff82169050919050565b6000612eee82612ef5565b9050919050565b6000612f0082612f07565b9050919050565b6000612f1282612eac565b9050919050565b60005b83811015612f37578082015181840152602081019050612f1c565b83811115612f46576000848401525b50505050565b60006002820490506001821680612f6457607f821691505b60208210811415612f7857612f77612fdc565b5b50919050565b7f4e487b7100000000000000000000000000000000000000000000000000000000600052601160045260246000fd5b7f4e487b7100000000000000000000000000000000000000000000000000000000600052601260045260246000fd5b7f4e487b7100000000000000000000000000000000000000000000000000000000600052602260045260246000fd5b600080fd5b6000601f19601f8301169050919050565b7f45524332303a207472616e7366657220746f20746865207a65726f206164647260008201527f6573730000000000000000000000000000000000000000000000000000000000602082015250565b7f45524332303a206275726e20616d6f756e7420657863656564732062616c616e60008201527f6365000000000000000000000000000000000000000000000000000000000000602082015250565b7f45524332303a20617070726f766520746f20746865207a65726f20616464726560008201527f7373000000000000000000000000000000000000000000000000000000000000602082015250565b7f4e6f2072657761726473207965742e0000000000000000000000000000000000600082015250565b7f45524332303a207472616e7366657220616d6f756e742065786365656473206260008201527f616c616e63650000000000000000000000000000000000000000000000000000602082015250565b7f416464726573733a20696e73756666696369656e742062616c616e636520666f60008201527f722063616c6c0000000000000000000000000000000000000000000000000000602082015250565b7f596f7520617265206e6f7420616c6c6f7765642e000000000000000000000000600082015250565b7f45524332303a207472616e7366657220616d6f756e742065786365656473206160008201527f6c6c6f77616e6365000000000000000000000000000000000000000000000000602082015250565b7f45524332303a206275726e2066726f6d20746865207a65726f2061646472657360008201527f7300000000000000000000000000000000000000000000000000000000000000602082015250565b7f45524332303a207472616e736665722066726f6d20746865207a65726f20616460008201527f6472657373000000000000000000000000000000000000000000000000000000602082015250565b7f45524332303a20617070726f76652066726f6d20746865207a65726f2061646460008201527f7265737300000000000000000000000000000000000000000000000000000000602082015250565b7f416464726573733a2063616c6c20746f206e6f6e2d636f6e7472616374000000600082015250565b7f616d6f756e742063616e6e6f7420626520300000000000000000000000000000600082015250565b7f5361666545524332303a204552433230206f7065726174696f6e20646964206e60008201527f6f74207375636365656400000000000000000000000000000000000000000000602082015250565b7f4e6f207265776172647320617661696c61626c65207965742e00000000000000600082015250565b7f45524332303a2064656372656173656420616c6c6f77616e63652062656c6f7760008201527f207a65726f000000000000000000000000000000000000000000000000000000602082015250565b7f45524332303a206d696e7420746f20746865207a65726f206164647265737300600082015250565b61348581612e8e565b811461349057600080fd5b50565b61349c81612ea0565b81146134a757600080fd5b50565b6134b381612ecc565b81146134be57600080fd5b5056fea26469706673582212209bb75f903df67e03d34d372a3bccc3aa72e14b3105761b76b165c2763961c34764736f6c63430008070033",
  "immutableReferences": {},
  "source": "pragma solidity ^0.8.0;\r\n\r\nimport \"../client/node_modules/@openzeppelin/contracts/token/ERC20/IERC20.sol\";\r\nimport \"../client/node_modules/@openzeppelin/contracts/utils/Address.sol\";\r\nimport \"../client/node_modules/@openzeppelin/contracts/token/ERC20/utils/SafeERC20.sol\";\r\nimport \"../client/node_modules/@openzeppelin/contracts/token/ERC20/ERC20.sol\";\r\nimport \"./Owned.sol\";\r\n\r\ncontract MangoJuice is ERC20, Owned {\r\n    using Address for address;\r\n    using SafeERC20 for IERC20;\r\n\r\n    IERC20 public mango;\r\n    IERC20 public mJus;\r\n    \r\n    \r\n    uint public rewardInterval = 1 minutes;\r\n    \r\n    //The divsisor for reward calculation. 100 = 1%, 50 = 2%, etc.\r\n    //See the calculateReward function.\r\n    uint public interestRate = 50;\r\n    \r\n    event StakeChanged(address _who, uint _amount, uint _total);\r\n    event RewardChanged(address _who, uint _amount, uint _totalMangoJuice);\r\n    event RateChanged(uint _newRate);\r\n    \r\n    \r\n    \r\n    //Data structure to keep track of staker reward and stake total\r\n    struct Staker {\r\n        uint stake;\r\n        uint reward;\r\n        uint startTime;\r\n        bool isStaking;\r\n        \r\n    }\r\n    \r\n    mapping(address => Staker) public stakers;\r\n\r\n    constructor(address _token) ERC20(\"MangoJuice\", \"MJUS\") {\r\n        mango = IERC20(_token);\r\n        mJus = IERC20(address(this));\r\n    }\r\n    \r\n     //View functions for Front-End\r\n    function balance() public view returns (uint256) {\r\n        return mango.balanceOf(address(this));\r\n}\r\n\r\n    function juiceBalance() public view returns(uint256) {\r\n        return mJus.balanceOf(msg.sender);\r\n    }\r\n    \r\n    function getInterestRate() public view returns(uint256) {\r\n        return interestRate;\r\n    }\r\n    function getInterestInterval() public view returns (uint256) {\r\n        return rewardInterval;\r\n    }\r\n      function getStake() public view returns(uint256) {\r\n        return stakers[msg.sender].stake;\r\n    }\r\n    \r\n    //Modifiers for the interest in reward calculations\r\n    function setRewardInterval(uint _newInterval) public onlyOwner {\r\n        rewardInterval = _newInterval;\r\n    }\r\n    \r\n    function setInterestRate(uint _newRate) public onlyOwner {\r\n        interestRate = _newRate;\r\n        emit RateChanged(_newRate);\r\n    }\r\n\r\n\r\n    function deposit(uint256 _amount)  public {\r\n        // Amount must be greater than zero\r\n         require(_amount > 0, \"amount cannot be 0\");\r\n         if(stakers[msg.sender].isStaking == true) {\r\n            collectReward(); \r\n         }\r\n\r\n        // Transfer Mango to smart contract\r\n         mango.safeTransferFrom(msg.sender, address(this), _amount);\r\n\r\n         // Mint MangoJuice to msg sender\r\n         _mint(msg.sender, _amount);\r\n         \r\n         // Calculate start of stake and time until reward distribution\r\n         stakers[msg.sender].isStaking = true;\r\n         stakers[msg.sender].stake += _amount;\r\n         stakers[msg.sender].startTime = block.timestamp;\r\n         emit StakeChanged(msg.sender, _amount, stakers[msg.sender].stake);\r\n\r\n}\r\n\r\n    function withdraw(uint256 _amount) public {\r\n         // Burn MangoJuice from msg sender\r\n        _burn(msg.sender, _amount);\r\n\r\n        // Transfer Mango from this smart contract to msg sender\r\n        mango.safeTransfer(msg.sender, _amount);\r\n        stakers[msg.sender].stake -= _amount;\r\n        if(_amount == stakers[msg.sender].stake) {\r\n            stakers[msg.sender].isStaking = false;\r\n        }\r\n        emit StakeChanged(msg.sender, _amount, stakers[msg.sender].stake);\r\n\r\n        \r\n}\r\n\r\n    function viewReward(address _staker) public view returns(uint256) {\r\n        return stakers[_staker].reward; \r\n    }\r\n    \r\n     //Rewards stakeholder 2% in MangoJuice per day\r\n    function calculateReward(address _staker) public {\r\n        require(stakers[_staker].isStaking == true, \"No rewards available yet.\");\r\n        uint256 daysCompleted = (block.timestamp - stakers[_staker].startTime) / rewardInterval;\r\n        stakers[_staker].reward =  (daysCompleted * stakers[_staker].stake) / interestRate;\r\n    }\r\n    \r\n    function collectReward() public {\r\n        calculateReward(msg.sender);\r\n        require(stakers[msg.sender].reward > 0, \"No rewards yet.\");\r\n        uint _amount = stakers[msg.sender].reward;\r\n        stakers[msg.sender].reward -= _amount;\r\n        stakers[msg.sender].startTime = block.timestamp;\r\n        _mint(msg.sender, _amount);\r\n        emit RewardChanged(msg.sender, _amount, mJus.balanceOf(msg.sender));\r\n    }\r\n    \r\n    //Withdraws all stake, cancels all pending reward\r\n    function emergencyWithdraw() public {\r\n        uint totalStake = stakers[msg.sender].stake;\r\n        stakers[msg.sender].reward = 0;\r\n        stakers[msg.sender].stake = 0;\r\n        _burn(msg.sender, totalStake);\r\n        mango.safeTransfer(msg.sender, totalStake);\r\n        emit RewardChanged(msg.sender, totalStake, mJus.balanceOf(msg.sender));\r\n    }\r\n    \r\n\r\n\r\n\r\n\r\n}",
  "sourcePath": "C:\\Users\\L_Mea\\contracts_solidity\\MangoStake\\contracts\\MangoJuice.sol",
  "compiler": {
    "name": "solc",
    "version": "0.8.7+commit.e28d00a7.Emscripten.clang"
  },
  "schemaVersion": "3.4.3",
  "updatedAt": "2021-09-21T12:23:15.950Z",
  "networkType": "ethereum",
  "devdoc": {
    "kind": "dev",
    "methods": {
      "allowance(address,address)": {
        "details": "See {IERC20-allowance}."
      },
      "approve(address,uint256)": {
        "details": "See {IERC20-approve}. Requirements: - `spender` cannot be the zero address."
      },
      "balanceOf(address)": {
        "details": "See {IERC20-balanceOf}."
      },
      "decimals()": {
        "details": "Returns the number of decimals used to get its user representation. For example, if `decimals` equals `2`, a balance of `505` tokens should be displayed to a user as `5.05` (`505 / 10 ** 2`). Tokens usually opt for a value of 18, imitating the relationship between Ether and Wei. This is the value {ERC20} uses, unless this function is overridden; NOTE: This information is only used for _display_ purposes: it in no way affects any of the arithmetic of the contract, including {IERC20-balanceOf} and {IERC20-transfer}."
      },
      "decreaseAllowance(address,uint256)": {
        "details": "Atomically decreases the allowance granted to `spender` by the caller. This is an alternative to {approve} that can be used as a mitigation for problems described in {IERC20-approve}. Emits an {Approval} event indicating the updated allowance. Requirements: - `spender` cannot be the zero address. - `spender` must have allowance for the caller of at least `subtractedValue`."
      },
      "increaseAllowance(address,uint256)": {
        "details": "Atomically increases the allowance granted to `spender` by the caller. This is an alternative to {approve} that can be used as a mitigation for problems described in {IERC20-approve}. Emits an {Approval} event indicating the updated allowance. Requirements: - `spender` cannot be the zero address."
      },
      "name()": {
        "details": "Returns the name of the token."
      },
      "symbol()": {
        "details": "Returns the symbol of the token, usually a shorter version of the name."
      },
      "totalSupply()": {
        "details": "See {IERC20-totalSupply}."
      },
      "transfer(address,uint256)": {
        "details": "See {IERC20-transfer}. Requirements: - `recipient` cannot be the zero address. - the caller must have a balance of at least `amount`."
      },
      "transferFrom(address,address,uint256)": {
        "details": "See {IERC20-transferFrom}. Emits an {Approval} event indicating the updated allowance. This is not required by the EIP. See the note at the beginning of {ERC20}. Requirements: - `sender` and `recipient` cannot be the zero address. - `sender` must have a balance of at least `amount`. - the caller must have allowance for ``sender``'s tokens of at least `amount`."
      }
    },
    "version": 1
  },
  "userdoc": {
    "kind": "user",
    "methods": {},
    "version": 1
  }
}